:020000040000fa
:080000000001040000000000f3
:020000040000fa
:10020000cfac200080ff200000018800000000002b
:10021000050007000c000700ba11020000000000f2
:100220000040da000000fe004440a9004005200024
:100230000000e0000300320000002000a001880060
:100240004440a80000000600c0fb2100010020007f
:100250001600370062004000e080480091018800ed
:100260009001ba0062004000e080480091018800df
:100270009002ba0062004000e08048000002eb00fb
:100280006028e10005003a008301e900070033001f
:10029000038009000059eb00040037006128e100e9
:1002a000010032000082eb00050007009101880088
:1002b0001001ba000200e000e6ff3a00000005006d
:1002c000910188008002780062004000e0804800d0
:1002d0003559ba008301e900080032002559ba00f7
:1002e0008301e900050032000400e000f4ff320061
:1002f00015d9ba008301e900f1ff3a0000000600b9
:10030000800078001106b100030035009101b100b2
:1003100001003c000050a100000006000ec2bf001a
:10032000610060000000fb00000006000cc2bf007e
:100330000000d10063006000e30f500002003a00ab
:100340009010800000000600901080000080fb00ec
:10035000000006008520a900e74160008540a90053
:10036000c419dd008109200091407800f2c8b30073
:1003700082c0600082cfb30083c07000800178002b
:100380008000fd0098e0b7008000fd000307b20088
:100390009109200091407800c419de0082c06000fd
:1003a0004201de0083c07000624161008000fd00f8
:1003b00099e0b7008000fd004500de00d108200074
:1003c00091407800644060000114a10082c0700078
:1003d0008000fd008de0b7008000fd00d108200006
:1003e000914078000124a10080c070008000fd00d1
:1003f0008de0b7008000fd0000000600a21088001c
:1004000060108800711088000000060084e0a900d8
:10041000e74160007109200091407800c419dd00b7
:10042000f2c8b3006800600082c060004300de00d4
:1004300083c070004700dd008000fd0097e0b7003a
:100440008000fd00c1082000914078000174a100e7
:1004500080c070008000fd008ce0b7008000fd00cf
:10046000000006000a21ef0071088800900888004b
:10047000000006008460a900e741600051092000e7
:1004800091407800c419dd00f2c8b30068406000f4
:1004900082c0600083c070008000fd0095e0b7005e
:1004a0008000fd00c1082000914078000134a100c7
:1004b00080c070008000fd008ce0b7008000fd006f
:1004c000000006000021ef001108880020088800c5
:1004d0000000060043158800541588002215880086
:1004e00011158800001588000000d100012a2000a5
:1004f00091407800614060000114a1000040d000ec
:1005000080c070008000fd00a0e2b7008000fd0008
:100510000000060030158800000006009623ef005a
:10052000e7c160008760a900c419dd00c01c880015
:10053000f2c8b300a1c0bf00e8c060000240600084
:1005400003407000a1e0b7008fc0bf000034a100dd
:10055000014070008fe0b700000006008000eb0053
:100560000fc2bf000008a30001003a0011002000e4
:100570000100780000000600800078000cc2bf0077
:100580000000d10063006000e30f50000100320062
:10059000f10fb20081108800000006000000fb008f
:1005a00004003200e10f500002003a00f11b880005
:1005b00000000600711c880000000600801c8800f6
:1005c00000000600901c8800a11c880000000600a6
:1005d000401ade00050020000000fb00060032008b
:1005e000e10f500004003a00c1198800d4198800b6
:1005f000e21988000000060081198800941988001b
:10060000a219880000000600401ade000500200044
:100610000000fb0004037800e20f500014003200d9
:1006200005003c000000e0000a003200e10f50002d
:100630000b0032001e003700e40f5000140032009f
:10064000e30f50000e003400e50f5000140032009c
:1006500017003700011888001418880016003700aa
:1006600041188800541888006218880000000600ad
:100670008118880094188800a218880000000600dd
:10068000c1188800d4188800e2188800000006000d
:10069000011988001419880022198800000006003a
:1006a000411988005419880062198800000006006a
:1006b000011888001618880022188800000006001b
:1006c0000000fb00e10f500004003200070034007e
:1006d000e20f50000300320004003700f11a8800d6
:1006e00000000600711a880000000600711b8800d7
:1006f0000000060000088800000006000000fb0063
:1007000003003200e10f5000030032000600370002
:100710008ec3bf00010037007ec3bf000080fb0016
:100720004700de0000000600000005008001eb002d
:10073000000278008180fb00e08f10000b003d007c
:100740000200fb0004003200e10f500002003a00fa
:1007500060372000010037006038200060f2790027
:100760008301e800818f5100f5ff3500000006008d
:10077000000880000000060000017800800078007a
:100780000cc2bf000000d10063006000e30f500006
:100790000a003a001200e000110032000fc2bf0050
:1007a0000018a300fdff3a001200780080108800b6
:1007b0005200e000f9ff3a00000006001204e000d9
:1007c000070032000fc2bf000018a300fdff3a006f
:1007d0001100fb00801088005104e000f9ff3a008e
:1007e000000006008000fb00e18f50000a0032008c
:1007f00003003c000100e000040032001400370058
:10080000e28f50000b003200110037008000eb0037
:100810006ec3bf00090037000001eb005ec3bf00dc
:100820000038a30001003a000101780002007800be
:10083000000006008000eb004ec3bf000038a3009c
:1008400001003a00110020000100780000000600bd
:1008500000000500889fbe00401bde00070020004e
:100860008544780001047800860278008900fb0046
:10087000e18f50000a00320003003c000100e0005c
:10088000040032000e003700e28f500008003200f2
:100890000b003700001b8800161b88000a00370079
:1008a000801a8800961a8800a21a8800070037006c
:1008b000001a8800161a8800221a880003003700e0
:1008c000001b8800151b8800221b88000001eb001c
:1008d0008481fb00e08f11000c003d00603520009a
:1008e000e18f500005003200030034006034200026
:1008f000e28f5000010032006036200068707900fd
:100900000201e800830f5100f4ff35000900fb00ed
:10091000e10f5000040032001b003400e20f5000d1
:100920000d0032001800370041352000914078005a
:100930006f40620072c8b3004300dd0082c06000f7
:1009400080c070008000fd0054e3b7008000fd000f
:100950005e63a80017003700413420009140780002
:100960006f40620072c8b3004300dd0082c06000c7
:1009700080c070008000fd0044e3b7008000fd00ef
:100980004e63a8000b0037004136200091407800ec
:100990006f40620072c8b3004300dd0082c0600097
:1009a00080c070008000fd0064e3b7008000fd009f
:1009b0006e63a8004f04be0000000600012820005e
:1009c0000080fb000000d00060807800000006007e
:1009d000881f78008a1f7800880a2c003802880057
:1009e0000004780001057800460cc3008301d100a3
:1009f0000a0507000884e800030007004f05780097
:100a00004f04780000000600038008000400000086
:100a1000470cc200150180000519780025018000ef
:100a2000051978004620ef00000006000d000700c1
:100a30000b00390078000700090039003600070074
:100a40000700390000000000000000000000000066
:100a50001d000700020039000000eb000000060046
:100a600000000600cc00070007003100f00820005d
:100a7000ca4ae30008003200300020000055880018
:100a80009f0107004200a900e7a620004132210093
:100a9000810b780000000600662aef0085aa20007e
:100aa00017ccb300874a780037c3b3009742980049
:100ab00017cfb300a74298004000200000558800df
:100ac0008f01070010003700000000000000000048
:100ad00000000000662aef00630307000a003100ef
:100ae00040002000005588002392200027ccb3004e
:100af0008749780017c0b300b741980007c0b3001a
:100b0000c74198007e010700e7a62000413221007e
:100b1000810b7800000006008000eb0047c0b300a6
:100b2000c755880057c0b300975388002392200010
:100b300047ccb3008749780007c1b30097419800bc
:100b400007c2b300b741980007c0b300c74198007f
:100b50004104200031538800110f200041538800c8
:100b600061c0b30025922000430207006e02070017
:100b7000720ae200150032006104200085000700bf
:100b80004200a90010002000005588001104200038
:100b900031538800b1062000415388002392200081
:100ba00017c6b30087497800a7c6b30097419800dd
:100bb00017cfb300a7419800f592200001a72000ad
:100bc0002541900082487800000006002392200012
:100bd00087c6b30087497800a7c6b300974198003d
:100be00017cfb300a741980017c0b300b7419800d2
:100bf00007c0b300c741980081042000315388002a
:100c0000b10620004153880061c0b3000000eb0032
:100c10004200a80000000600810420003153880033
:100c200057c0b300c755880067c0b300975388000a
:100c30002592200017c0b300b742980007c0b30048
:100c4000c7429800de0107005b010700720ae2005c
:100c50000a00320061c5b3004e0007004200a9003f
:100c60002000200000558800f592200001a72000f8
:100c70002541900082487800000006000000eb004b
:100c80004200a80000000600e055880000000600b1
:100c90001055880000000600da82a80041c1b300a8
:100ca0001e000700da82a900810220001b00070055
:100cb000da82a8008102200018000700da82a90069
:100cc0008102200015000700da82a80081022000be
:100cd00012000700da82a9000100070000000600e8
:100ce0002f0307000021ef00105580000021b50000
:100cf000feff330000000600290307000021ef007b
:100d000002532700030880000310e100fdff3b00b1
:100d10008140e900f9ff3a000000060020030700c7
:100d200040062000b1558800b60abc00b2558800c4
:100d30000021ef0036062000bf020700b62aed00b2
:100d4000b60ae200faff3a000000060014030700aa
:100d50000021ef0016558000b702070016558000ed
:100d60004233dd00b402070000000600821f780055
:100d70008100e8008100e90004003200c0a22100e7
:100d80000000e900feff3a00faff37004f0178004b
:100d9000000006000000060000fa2000e055880070
:100da000e7a6200006c42900860b78000108200071
:100db000daff070001082000d8ff0700170407002a
:100dc000e2ff0700e7a6200001352c00810b780028
:100dd00059000700a400070015003100a200070019
:100de00051538800a00007006153880081017800fa
:100df000e1012000ddff07008381ea008700070092
:100e0000990007000c00310091032000e1ff07006a
:100e1000007d2000e0558800e7a620004632210032
:100e2000860b78004200a900300020000000060078
:100e30009104200001003700e10420000000eb00d5
:100e40004200a800780aa80000000600861f78006b
:100e500003003700861f780021558000afff070090
:100e60000900070051002000c0ff0700b5417800cd
:100e70001155800069000700726aed00f9ff3a0021
:100e80004f03780000000600811f7800851f78005e
:100e90008000eb003543780081404300b46aed00e8
:100ea000fcff3a00814a7800cf027800cf0078003a
:100eb00000000600722aef00780aa9001e00070051
:100ec00017003100f492200067000700060031008f
:100ed000722aec00015a780095538000e1922000bc
:100ee00085487800f8ff3700f69220008003eb0079
:100ef000305380000700e7000c003700964378006d
:100f0000003ce100ebff3a00964390004053800024
:100f10000704e100e7ff3a00720ae20003003a002a
:100f20004200a800780aa800000006004200a900bc
:100f3000780aa90000000600b30207000621ef00ae
:100f40007353800034088000830152000400310094
:100f5000da62af00faff37004200a9000000060085
:100f60004200a800780aa80000000600722aef00dc
:100f7000780aa900f0ff070022003100f492200057
:100f80003900070011003100722aec00015a780084
:100f900095538000f192200091427800f540b20014
:100fa0004540b000054378002f00070007003100de
:100fb000722aec00015a780095538000e1922000db
:100fc0008548780005b4e700f7ff3700f692200067
:100fd0008003eb00305380000700e7000c0037006f
:100fe00096437800003ce100e0ff3a009643900011
:100ff000405380000704e100dcff3a00720ae2007f
:1010000003003a004200a800780aa8000000060089
:101010004200a900780aa90000000600861f780097
:101020000302780092c0b3004200a9000482d200fb
:101030000482d30002003900da82a90001003700df
:10104000da82a80016558000fb0107000241e90082
:10105000f7ff3a00da82a90016558000f601070072
:101060004f03780000000600861f7800841f780078
:1010700065020700820020008000eb004200a9000a
:10108000e3558000340880008301520013003100d2
:10109000da62af00faff370016558000e60107005c
:1010a000165580000603d300e30107004200a900a3
:1010b0008140d300da62af000148b30016558000ca
:1010c000dd0107000241e900f8ff3a004200a900f3
:1010d0004f0278004f037800000006004200a8008d
:1010e0004f0278004f037800000006000000060061
:1010f00010c0b30074eab600a0c0b300d055880099
:10110000005580006104e1001d00320061002000f4
:10111000f9fe070057002000a7558800670020004f
:101120009753880025922000c6020700e7020700b7
:10113000b05380006204e10006003d00f04b8000e7
:101140000080fd00f00fb20002a720000009780027
:1011500000000600f04b80000080fd00f00fb200a0
:10116000514c80000180fd00f10fb2000100e6004b
:10117000f2ff370005a72000810a78000000060072
:1011800005a7200000012000800a780000032a0043
:101190002008880000000600c1032000f3fe0700bd
:1011a000000006000621ef00320880006f10e10009
:1011b000fdff3a0000000600861f780012020700bb
:1011c0000000280080088800ff01070000032800b5
:1011d000f0088800722aef004200a8000001eb002e
:1011e000722aef004200a800f69220000241e800b7
:1011f000a1c0b300020ce7002f0037008000eb0015
:10120000c862af00feff3700a508800000002f0075
:101210001401e30028003400c862ae00faff370072
:10122000040037000601e300f5ff3200c862ae009b
:10123000fcff37000621ef00c862af00feff370059
:1012400080bb20000601e30001003c00ecff3700fa
:101250003800070003003100055b7800722aec00bb
:10126000fbff3700724ae200130032008003eb00fc
:10127000305380000700e70007003700f492200099
:1012800034407800664ab500d5ff3a003440780013
:10129000684ab500d2ff3a00726aed0090538000b0
:1012a000e5922000804a78004200a900780aa9004f
:1012b0004f037800000006004200a800780aa8004a
:1012c0004f0378000000060081c0b30000c0d200c8
:1012d000030007008140e900fcff3a00000006001f
:1012e0000a003100c862af0004003700c842a800fd
:1012f000e60720005001070000000600c842a900d0
:10130000e60320004c01070000000600c862af00a1
:1013100004003700c842a800e60320004601070089
:1013200000000600c842a900e607200042010700ad
:101330000000060081c0b3008002eb000621ef0030
:10134000c862ae000a003700c862ae000400370071
:10135000803222000601e30017003d00faff37004b
:10136000807020000601e3000a003d000c003700f9
:10137000c862af000400370080bb20000601e30014
:101380000d003d00faff3700807020000601e300e9
:1013900003003d004200a90085c2d20002003700d0
:1013a0004200a80085c2d2008140e900e3ff3a0074
:1013b0004200a900000006004200a800000006004c
:1013c000861f780090010700000028008008880030
:1013d0007d01070000032800f00888002392200008
:1013e00064020700c862af00feff37000621ef006d
:1013f000c862af00fbff3700905e21000601e300ea
:1014000001003d00faff37000621ef0000fa20003e
:10141000c842a8000601e300feff34003340780014
:10142000a9ff0700726aed00fcff3a000621ef00f9
:1014300000fa2000c842a9000601e300feff3400c4
:101440004f037800000006000621ef0036088000f8
:10145000070820000730e100fcff3a00000006000a
:101460000621ef0036088000071020000730e10059
:10147000fcff3a0000000600861f780062010700aa
:10148000000028008008880023922000390207000d
:101490000a21ef000a21ec000a01e20020003200dc
:1014a000da42af00fcff37000621ef00da42af005e
:1014b000f9ff370034088000827020000220e1002c
:1014c00001003c00f9ff3700da22a800000000000c
:1014d000da02a900da02a90000000000b800070043
:1014e000da02a80000000000da22a900da22a9002e
:1014f000b9000700b34278005d000700726aed0092
:10150000000000000000000000000000f9ff3a00a9
:1015100076000700060178000110a7004200a8002d
:101520004f03780000000600881f7800861f7800af
:10153000350107000000280080088800220107000c
:1015400000032800f00888000001eb00722aef0079
:10155000f492200004047800a0088000010022001a
:101560000180e6003d0037000a21ef000a21ec006f
:101570000a01e20039003200da42af00fcff370016
:10158000000022001401e30031003200da42ae0014
:10159000fbff37000621ef00da42af00feff370005
:1015a00087252000330880000338e1000100330064
:1015b000f3ff37000621ef00330880008752200038
:1015c0000718e10007003c00da42ae00faff3700de
:1015d0004600070021003100065a7800722aec000c
:1015e000f4ff3700720ae200190032008003eb00ba
:1015f000305380000700e7000a003700f492200013
:1016000034407800f044b200664ab500cfff3a009b
:1016100034407800684ab500ccff3a0015cfb300db
:1016200013000700726aed0090538000e5922000dd
:10163000804a7800a1002000ccfd0700780aa900ac
:101640004200a9004f0378004f0478000000060014
:101650008603780086037800860378004200a8009d
:10166000780aa8004f0378004f04780000000600b5
:10167000821f780082c0b30085c2d2000400070038
:101680000241e900fcff3a004f017800000006002b
:101690000b003100da22a800f6002000da02a900cf
:1016a0004d000700da02a80000000000da02a800de
:1016b00000000000da22a9004d000700000006002b
:1016c000da22a80066002000da02a900480007001c
:1016d000da02a80000000000da02a8000000000002
:1016e000da22a9003c00070000000600821f7800f3
:1016f00081c0b3000043eb000621ef0082572000b9
:10170000330880008301510019003300da42ae0033
:10171000faff37000621ef00da42af00feff370084
:101720000001eb00220d20003308800083015100ee
:10173000010033000700370002202000330880003a
:10174000830151000e0033004200a90006c3d200fd
:10175000020037004200a80006c3d2008140e90021
:10176000e6ff3a004200a9004f01780000000600a1
:101770004200a800000000004f01780000000600b1
:10178000000000004200a8004f01780000000600a1
:101790000621ef00360880000710200006b8e6009a
:1017a000fcff3700000006000621ef00360880002d
:1017b0000708200006b8e600fcff3700000006001e
:1017c0000621ef00360880007725200006b8e600e5
:1017d000fcff3700000006000621ef0036088000fd
:1017e0002712200006b8e600fcff370000000600c4
:1017f0000621ef0036088000b708200006b8e60092
:10180000fcff3700000006000621ef0036088000cc
:10181000b715200006b8e600fcff37000000060000
:101820000621ef0036088000d709200006bce6003c
:10183000fcff370000000600851f7800801f78003d
:101840000021ef0000002800200888007433b90050
:10185000050880000530e100fdff3b004f007800e7
:10186000cf02780000000600da82a8009101200073
:101870003efd0700da82a900410120003bfd070080
:1018800025922000120c2000824a780032c3b30057
:101890009242980012cfb300a242980012c8b3003f
:1018a000b242980047c0b300a755880057c0b300a4
:1018b0009753880065fd0700925380007dfd070067
:1018c000720ae2000700320085087800b1042000a7
:1018d00030fd07004200a9004000200000558800ac
:1018e0000000060082c6b300824a7800a2c6b30098
:1018f00092429800780aa800000006002592200075
:1019000012ccb300824a780010c0b300b5409000fa
:101910000104e1001a003200824a780090c0b3004e
:10192000b54090000104e10015003200824a7800c1
:1019300060c0b300b54090000104e1001000320027
:10194000824a780030c0b300b54090000104e10045
:1019500012003200824a780070c0b300b540900097
:101960000104e1000d003200824a780040c0b3005b
:10197000b54090000104e10008003200950ae8003b
:10198000950ae80080c0b300b54090000184e700ec
:1019900030fd370070ccb300804a78002dfd370051
:1019a0000421ef000021ef00f0ff2f00d008880095
:1019b0008ea0a9000001280020088800f0ff2f0059
:1019c00010088800000006001e21ef001421ef001f
:1019d000f0ff2f00d00888008ea0a9000001280089
:1019e000f0088800000006001e21ef001421ef001f
:1019f000f0ff2f00d00888008ea0a900000028006a
:101a0000f0088800000006001021ef000621ef001a
:101a1000f0ff2f00600888008cc0a9000003280098
:101a20008008880000000600851f7800861f780067
:101a3000871f780021922000f055880081027800ed
:101a400057002000d755880057002000a755880070
:101a5000c75588006700200097538800ba2aed0018
:101a60001000320077000700e49220008600070093
:101a7000780aaf00f4ff3700f5922000254090006f
:101a8000704ab50001003200f8ff3700000328005b
:101a900020088800cf0378004f037800cf02780039
:101aa00000000600e492200091002000014a780026
:101ab0000003280020088800cf0378004f03780037
:101ac000cf02780000000600851f7800861f78008e
:101ad000871f78002592200067002000a755880006
:101ae000c75588007700200097538800a700200082
:101af000d75588002769ef00d8ff3700851f780089
:101b0000861f7800871f7800f055880081027800d2
:101b100047002000a7558800c755880057002000bf
:101b20009753880047000700f455800067000700be
:101b30000003280020088800cf0378004f037800b6
:101b4000cf02780000000600851f7800861f78000d
:101b5000871f7800f0558800810278006700200018
:101b6000a7558800c7558800770020009753880044
:101b7000ecff3700851f7800861f7800871f7800ec
:101b8000f055880081027800a7002000d755880012
:101b900057002000a7558800c7558800670020001f
:101ba00097538800ba2aed0005003a004200a800c9
:101bb000cf0378004f037800cf02780000000600c2
:101bc000c882a8001f000700c882a900f455800041
:101bd0003e0007000003280020088800cf0378009b
:101be0004f037800cf02780000000600851f7800c0
:101bf000861f7800871f780081027800a7002000e8
:101c0000a7558800c7558800b70020009753880063
:101c1000c4ff3700851f7800861f7800871f780073
:101c200000fa2000e055880025922000975380009c
:101c3000a7558800c75588008703e8009753880098
:101c4000b8ff370016002000075580000730e70076
:101c500009fe0700015580000603e8000730e70091
:101c6000d7fd0700015580000603e8000730e700b4
:101c700078fc0700015580000603e8000730e70004
:101c80001eff07000000060016c0b30001558000cb
:101c90000134e70024fe07000643e80001558000f8
:101ca0000134e70044fd07000643e80001558000c9
:101cb0000134e7007ffc0700015580000643e8007f
:101cc0000134e700a9fc070000000600762aef00b7
:101cd0004200a90016c0b300015580000134e7009e
:101ce00011fe070016003100015580000643e80090
:101cf0000134e70030fd070011003100015580007c
:101d00000643e8000134e7006afc07000c003100dc
:101d1000015580000643e8000134e70093fc07000a
:101d2000780aaf000600370006000700762aec00ac
:101d3000b1538000c0c0b3000088e700e5ff370062
:101d400000000600861f7800871f7800e5922000bb
:101d5000c7972000b05380006c00b8008703400094
:101d60000b000900b55b7800cf0378004f037800c3
:101d70000000060025922000c06aef00f0cfb300fb
:101d8000c6eab700c4eab70015407800c2eab70057
:101d90004200a80095cad20003003900c6eaaf008d
:101da0000a00370003003700c6eaaf000100370021
:101db0000600370047ac200017437800fc4b6b004f
:101dc000c40aa8004200a80002003700c40aa90003
:101dd0004200a900c4cabf00c6eab700c4ead600e0
:101de000c02aec00c06aae00eaff3700c2cabf00da
:101df000804a78008502e80015407800c2eab70002
:101e0000c06aef00b86aed00e2ff3a00c6cabf0040
:101e1000804a780095caea0000000600820020008f
:101e200092538800e4538000da82a800c882a80098
:101e300041c1b300b9fb07000400a700050037004b
:101e4000da82a800c882a80041c1b300b3fb070032
:101e500004003700da82a900c882a90041012000ed
:101e6000aefb07000442d300722aed00f2ff3a00f5
:101e7000da82a9009afb0700000006000000fe00bd
:101e80000200fa00000f78001e0078007efb0700b9
:101e90000080fa00000006000200fa00000f78003f
:101ea0001e0078007afb07000080fa0000000600a0
:101eb0000600fa000040eb0040479800e0052000d3
:101ec000000f7800e0052000f3ff0700d7fa0700b5
:101ed0000080fa00000006000800fa00000f7800f9
:101ee000110798000040eb0060479800e0052000d3
:101ef00020079800e0052000e7ff0700a6fb070089
:101f000000fa200060fb07009e0090001e00780091
:101f1000c5fe07006e4090000040e8006047980052
:101f20006e4090003dfc0700faff37000800fa0001
:101f3000000f780011079800220798009e00780093
:101f4000638040009000fb001e80e8001000fb0052
:101f500007040700604798002e009000e30040004f
:101f600010c0b300804878002e009000640040004c
:101f7000ee40900001487800ae0090001e009000f6
:101f8000a9fe0700b20607000080fa000000060064
:101f90000400fa00000f7800110798009e009000de
:101fa0001e007800a0fe07000000eb000080fa0091
:101fb000000006000400fa00000f780011079800e6
:101fc0009e0090001e007800bffe07000000eb009e
:101fd0000080fa00000006000400fa00000f7800fc
:101fe000110798009e0090001e007800c3fe0700b5
:101ff0000000eb000080fa00000006000e00fa006e
:10200000004f780080c3b300cd030700004f980055
:102010000040eb00204f9800f00f200020079800b0
:102020000000eb00300798003e009000c1a820009f
:102030000100400010407800004f98002e009000f2
:10204000100798003e009000c1a820000100400049
:102050001080fb000000d00060079800ee009000a8
:10206000f00f2000808f500005003400ae0090007b
:10207000f0072000808f5000050034000d0037006d
:10208000ae009000f0072000808f5000090034005f
:10209000c10120001e0090003b00070010079800bf
:1020a000100020001007980010c0b300104f9800d7
:1020b00006003700e10f20001e00900032000700ec
:1020c000100798000040eb00104f98001e00900091
:1020d000200798001e0090000000d0001007980014
:1020e0001e4890008080fb001e0090000100400010
:1020f000100798002e4890000040e800204f9800fc
:102100002e489000e74f5000ceff36003e00900072
:10211000c1a82000010040008e48900001487800ce
:102120003e0090000000e800300798003e0090005c
:10213000c1a820000100400010407800004f980026
:102140000040eb00204f98001e4fe9001e04e00005
:10215000bcff3c004e409000304f9800f10f200033
:102160002e00900008000700200798003e00900015
:10217000c1a8200001004000ce4090000148780036
:102180000080fa00000006000600fa00000f780048
:10219000110798000000eb00200798001e00e000e7
:1021a00003003a001e0090000000e000070032002b
:1021b0001e00e000030032001e0090000000e0005e
:1021c00002003a0010002000200798002e00900026
:1021d0000080fa00000006000200fa00004f7800bc
:1021e00090c0b3009e4f1000020036001e407800e1
:1021f000674f400000c3b3001e4f40001e80fb002d
:102200000080fa00000006000000fa008520a90006
:102210000080fa00004006003600f800809fbe00f3
:10222000829fbe00849fbe00869fbe000400fa000d
:10223000005480000000e8000054880084e0a900f9
:1022400020002000800ae30016003a000000eb00a6
:10225000005488008000eb00010f7800300020005f
:10226000a00ae30002003a0011002000010f7800ec
:102270000001eb001207980040002000a00ae300d4
:1022800002003a0011002000110798001e0178009a
:102290009e009000010071000000e000010032008b
:1022a000400507000080fa004f03be004f02be0049
:1022b0004f01be004f00be003600f900004006008e
:1022c000809fbe000000fa000000eb00d01c8800d8
:1022d0000000eb00b01c88008760a90097c3bf0016
:1022e0000080fb004400de000080fb006100600015
:1022f0000000e00007003a0097c3bf000080fb0029
:102300004300de000080fb00610060000000e00090
:102310000d003200801c8000014020000100700090
:10232000801c8800801c80000108200001006000e3
:102330000000e000fbff3200801c800001802f00c5
:1023400001006000801c88006ec3bf008ec3bf0008
:102350000080fb004700de000080fb000000e00082
:10236000010032008ee3a9000080fa004f00be0099
:10237000004006001800fa000000eb00300798004b
:102380006800470021f92900200f9800310f9800bc
:102390002e089000be0890000b000900315878000c
:1023a000b00c200030168800d00d20006016880088
:1023b000f00f2000f0168800c0ee2f00c016880035
:1023c000400f2000f0168800db02a800c822a900f8
:1023d000da22a900da02a800c842a9000000eb0036
:1023e000000e88000000eb00c053880080c6b300d8
:1023f0006ee9b700a0c6b3006fe9b70010cfb30015
:1024000070e9b70010c0b30071e9b7000040eb00fd
:1024100072e9b70050002000d04b880080042000f3
:1024200030538800b0062000405388006800070041
:102430000040eb001be9b70000c3b30052e9b7004e
:1024400010c3b30053e9b7000000eb00005588004b
:102450000000eb00805388000000eb00a0538800d0
:1024600000c3b30050e9b70010c3b30051e9b7008f
:1024700000c3b30052e9b70000c3b30053e9b7008b
:10248000020007000080fa00000006000800fa00c1
:102490000000eb0020079800fe050700310207004e
:1024a000fc050700c8a2a9008ce0a8000140fe00be
:1024b0009af707000004e00002003a000140fe0025
:1024c000fbff37008ce0a900701080006200600004
:1024d0000000e000030032000e22a900f00f2000ef
:1024e000d0538800c3040700f19420009140780085
:1024f0004ec9bf009e0207000080fb00d053880039
:1025000010002000520ae30002003c000000eb0033
:10251000d0538800d1538000310798002004200058
:10252000be009000808f5000140032002004200074
:10253000be009000808f500005003c001004200079
:10254000be009000808f50000a003200110037005a
:1025500030092000be009000808f5000090032003a
:10256000000d2000be009000808f50000700320058
:1025700008003700e405070007003700fb050700e7
:1025800005003700c300070003003700d40407002c
:1025900001003700040007000000eb000054880031
:1025a0008ce0a800c1ff37000200fa00ed0107002f
:1025b0005af707000004e000030032005bf7070051
:1025c000000f7800faff37000080fa0000000600d4
:1025d0000600fa0080c6b30022e9b700a0c6b30027
:1025e00022e9b70010cfb30022e9b7003003200082
:1025f000e0538800a0002000000f78000d42a800e2
:102600000000eb00a0528800100020000055880058
:102610000000eb00b05288000000eb00205388005f
:10262000e0f22f004bf7070000f22c001007980093
:10263000d0752f00200798001e017800ae00900092
:102640001e0090006df707000080eb006ff7070099
:102650008080eb00d0fb2d0082f7070010ff2f00d9
:1026600084f70700f1ff200090fb2f0095f707008b
:102670000002eb00c3ff2f00f2f72f00418e200075
:1026800070cf2d0093f7070000ff2f00a1f7070080
:1026900080c6b30022e9b700a0c6b30023e9b700a3
:1026a00010cfb30024e9b70010c0b30025e9b7008c
:1026b0000040eb0026e9b7000040eb0027e9b70037
:1026c0000040eb0028e9b7000040eb0029e9b70023
:1026d0000040eb002ae9b7000040eb002be9b7000f
:1026e00040002000f0168800c80007000040eb0002
:1026f00015e9b7000040eb0016e9b7000040eb0019
:1027000017e9b7000040eb0018e9b7000040eb0004
:1027100019e9b70040002000f01688000000eb0027
:102720009016880031ff2f00300820007bf707004b
:102730000080fa00000006000800fa00000f780090
:1027400086f707000004e000fdff3a006005200066
:1027500089f7070081f707000004e000fdff3a0059
:102760001e00e00002003a004003200082f707004c
:10277000100020009e0f100002003a0060042000ac
:102780007df707000000000074f707000004e00078
:10279000fdff3a001e00e00002003a008003200026
:1027a00075f70700100020009e0f100002003a008d
:1027b0006004200070f707000000000067f70700c2
:1027c0000004e000fdff3a00600320006af7070004
:1027d00062f707000004e000fdff3a00200420003b
:1027e00065f707005df707000004e000fdff3a0011
:1027f0001003200060f7070058f707000004e0000e
:10280000fdff3a00000320005bf70700c1c8bf00ce
:10281000ef4f500004003e00c2c8bf004047980080
:102820004e409000a6010700c3c8bf004047980073
:102830004e409000a2010700c4c8bf004047980066
:102840004e4090009e010700c5c8bf004047980059
:102850004e4090009a010700c6c8bf00404798004c
:102860004e40900096010700c7c8bf00404798003f
:102870004e40900092010700c8c8bf004047980032
:102880004e4090008e010700020507000080fa000c
:10289000000006000200fa000000eb00005588006e
:1028a000100020003055880081fd07000055800091
:1028b0000000e00002003a00150007000055880003
:1028c0000000000025f707000004e000fdff3a00cb
:1028d0000005200028f7070020f707000004e000ab
:1028e000fdff3a000055800001032000010f400069
:1028f0001e00780020f7070018f707000004e0002a
:10290000fdff3a00e30407000080fa000000060023
:102910000400fa0010ff2f00d6f60700f1ff200098
:1029200090fb2f00e7f607000000eb00000f780097
:102930003600070050002000005588000e000700f8
:10294000000f78001e00e00004003a006000200044
:10295000005588001a000700000f78001e00e000f4
:1029600002003a000000eb0000558800005580008e
:102970000080fa00000006000200fa00410020007a
:102980000040eb0005f70700f07d2000010020006b
:10299000e0548800f154880020c0b3001ce9b7005f
:1029a0008040eb0010c0b3006502070095000700ef
:1029b000000f78001e0078000080fa00000006007a
:1029c0000200fa00103f2300b18d2100e05488007e
:1029d000f154880020c0b3001ce9b700480007008c
:1029e000410020000040eb00ecf607008040eb00c7
:1029f00010c0b300c302070082000700000f780078
:102a00001e0078000080fa00000006001000fa00a6
:102a100000c02200e9f6070090c3bf000080fb0061
:102a20004500de000080fb00e30f5000faff340099
:102a3000a17b200000042000e2f607006011b8002e
:102a4000d1ff21000040eb00e1f607006011b80063
:102a5000d1ff210010c0b300ddf607006011b800ff
:102a600001fa210010c0b300e7f607006011b800ba
:102a700001fa210020c0b300e3f607006011b8009e
:102a800001fa210030c0b300dff607006011b80082
:102a900001fa210040c0b300dbf607006011b80066
:102aa00001fa210050c0b300d7f607000040eb0048
:102ab000704f9800310020007e48900000f707001a
:102ac000410020007e489000b4f60700410020003d
:102ad00010c0b300b1f6070000802000b7f6070071
:102ae00090c3bf000080fb004500de000080fb00bb
:102af000e30f5000faff34000080fa0000000600e7
:102b00001000fa0000c02000acf6070090c3bf0020
:102b10000080fb004500de000080fb00e30f50005a
:102b2000faff3400a17b200000042000a5f6070076
:102b300002c0230043bc2000918d21000040eb0027
:102b4000a3f6070002c0230043bc2000918d2100a2
:102b500010c0b3009ef607000200200043bc200016
:102b6000918d210010c0b300a7f6070002002000dd
:102b700043bc2000918d210020c0b300a2f60700c5
:102b80000200200043bc2000918d210030c0b30022
:102b90009df607000200200043bc2000918d21001b
:102ba00040c0b30098f607000200200043bc20009c
:102bb000918d210050c0b30093f607000040eb0058
:102bc000704f9800310020007e489000bcf607004e
:102bd000410020007e48900070f607000080200031
:102be00076f6070090c3bf000080fb004500de00c2
:102bf0000080fb00e30f5000faff34000080fa0071
:102c0000000006000c00fa000000eb00000f780046
:102c100080c0b300c0e8b7000000eb00b5f60700c5
:102c20000000eb00200798000040eb00b3f607001f
:102c30000004e00002003a00110020002107980083
:102c40000001eb003207980010c0b300abf607009c
:102c50000004e00002003a00100020003007980055
:102c6000ae0090003e019000828060004107980015
:102c70000000eb0050079800b0f320000001e300d3
:102c800002003e0011002000510798004e01900004
:102c9000de009000010061000000e000e0ff3a006b
:102ca0000040eb0095f607000004e0000f00320042
:102cb0000041eb00018c200091407800108c200036
:102cc0009af6070010002000000f78000000eb00cb
:102cd000f0488800711c8000f00720000080600030
:102ce000701c8800300007001200370010c0b300cd
:102cf00082f607000004e0000e00320012c0b300ac
:102d0000018c200091407800108c200087f607008d
:102d100010002000000f78000000eb00f048880051
:102d2000f11b8000f007200000806000f01b88008d
:102d3000400007008ef6070080007800b0f3200006
:102d4000808f50000400360089f6070010079800b5
:102d500010002000f04888001e0078000080fa0073
:102d6000000006000e00fa000e80e800e1f92900dc
:102d700050079800610798005e009000ee009000f8
:102d800007000900315878000e80e8007af6070045
:102d9000f2f507000004e000fdff3a00bd03070064
:102da0000080fa00000006000000fa00e2548000f3
:102db000f35480000080200001002000800f5100ab
:102dc000818f590012003600011c8000c0ff2100d5
:102dd00000816000111c8000f0ff20000080600076
:102de000700040000011dd00211c800000c02f0099
:102df00000806000660040000010dd004a00de0038
:102e000001002000e0458800f145880007003700f8
:102e1000011c8000c0ff2100008060004200de0035
:102e200001002000e0458800f14588000080fa009c
:102e3000000006000000fa00e2548000f354800015
:102e40000080200001002000800f5100818f590078
:102e500012003600811b8000c0ff2100008160004d
:102e6000911b8000f0ff2000008060007000400097
:102e70000011dd00a11b800000c02f000080600059
:102e8000660040000010dd004a00de000100200066
:102e9000e0458800f145880007003700811b80006d
:102ea000c0ff2100008060004200de000100200021
:102eb000e0458800f14588000080fa000000060027
:102ec0000400fa00004f78001e4078001047980078
:102ed00000cfb3001e4f60001e80fb004400de00e8
:102ee000004f78001e40780015000700204798002a
:102ef0009af507000004e000fdff3a002e40900024
:102f00000000fb009cf507001e4090006f40600031
:102f1000104798001e4090000900070020479800c5
:102f20008ef507000004e000fdff3a002e409000ff
:102f30000000fb0090f507000080fa00000006008a
:102f40000200fa00004f780090c0b3009e4f1000be
:102f5000020036001e407800674f400000c3b300f7
:102f60001e4f40001e80fb000080fa00000006009b
:102f70000400fa00004f78001147980000cdb3001c
:102f80001e404000204798002e409000e94f50001e
:102f9000030036002e409000674050002047980004
:102fa0002e4090008080fb00000120000088b900c6
:102fb000204798009e40900000cdb30000c0400024
:102fc000104798001e409000e94f50000300340065
:102fd0001e4090006740500010479800ae4090009f
:102fe0001e40900000c04000204798002e409000f6
:102ff0000080fb000080fa00000006000600fa00d6
:103000008e80e80060c5b3008048780020c4b3001b
:10301000904098000040eb00a04098000e80e8002f
:10302000d5f507004df507000004e000fdff3a006c
:1030300018030700119520009140780050c9bf0087
:10304000cbff0700004f78001e80fb00a010880017
:103050000080fa00000006000600fa008e80e800fa
:1030600060c5b3008048780000c5b3009040980068
:103070000040eb00a04098000e80e800bef507007d
:1030800036f507000004e000fdff3a0001030700e9
:10309000119520009140780050c9bf00b4ff07008f
:1030a000004f78001e04e00002003200c822a80091
:1030b00001003700c822a9000080fa0000000600c5
:1030c0001000fa0010c0b300004f780020c0b30019
:1030d0001ce9b7000000eb00f048880011952000c3
:1030e0009140780050c9bf00a1ff07001047980029
:1030f000e2548000f3548000e07f200001002000b3
:10310000800f5100818f590004003e009e409000c6
:1031100010c0b3008a000700030037009e409000f3
:1031200010c0b300f7000700e2548000f3548000a1
:10313000e07f200001002000800f5100818f5900a6
:1031400005003e00807e200001002000100798004e
:10315000210798000400370000112f00a18d2100e5
:10316000100798002107980000000000a5fe070046
:103170000000e00002003a0010002000f048880043
:103180000000eb0060079800e2458000f3458000f6
:103190001e009000ae009000800f5100818f5900fa
:1031a0000200360011002000610798000001eb00ca
:1031b00072079800f04880000000e00002003a002a
:1031c0001000200070079800ee0090007e01900033
:1031d000028060000000e000e4ff3a00f048800058
:1031e00055fd07000080fa00000006000c00fa0000
:1031f0000e80e80061fa2900400798005107980006
:103200004e009000de009000040009003158780064
:103210000e80e80058f50700d0f407000004e00035
:10322000fdff3a009b0207000080fa000000060044
:103230000a00fa000e80e800b1fa29003007980071
:10324000410798003e009000ce0090000300090066
:10325000315878000e80e80047f50700bff40700fa
:103260000004e000fdff3a008a0207000080fa0037
:10327000000006000200fa00a0cabf0010ff07000d
:10328000840207000080fa00000006000200fa0035
:10329000004f7800114798000040eb0051f50700ff
:1032a0000004e00024003200801f78001cc9bf0029
:1032b000c9e8b7004f00780020c0b300cae8b700e3
:1032c0000040eb00cbe8b7001e409000cce8b70010
:1032d0000040eb00cde8b7000040eb00cee8b700bf
:1032e0000040eb00cfe8b7000040eb00d0e8b700ab
:1032f000e1548000007c2000008060004501dd007a
:10330000e1548000f0032000008060004200dd00f6
:1033100000007100e3007000c08f2f00008060008b
:103320008042eb0084c0b300918c2000821f2e00ed
:10333000030c200047f507000080fa00000006009b
:103340000200fa00004f7800114798000040eb009f
:1033500024f507000004e00024003200801f7800fc
:103360001cc9bf00c9e8b7004f0078001e407800b4
:10337000cae8b7001e409000cbe8b7000040eb0061
:10338000cce8b7000040eb00cde8b7000040eb0010
:10339000cee8b7000040eb00cfe8b7000040eb00fc
:1033a000d0e8b700e1548000007c2000008060007d
:1033b0004501dd00e1548000f00320000080600042
:1033c0004200dd0000007100e3007000c08f2f009c
:1033d000008060008042eb0084c0b300918c20002c
:1033e000821f2e00030c20001af507000080fa004f
:1033f000000006000400fa00008fbe000040eb0051
:10340000f8f407000004e0003c003200801f780060
:103410001cc9bf00c9e8b7004f007800801f7800c2
:1034200013c9bf00cae8b7004f007800801f7800ba
:1034300014c9bf00cbe8b7004f007800801f7800a8
:1034400015c9bf00cce8b7004f007800801f780096
:1034500016c9bf00cde8b7004f007800801f780084
:1034600017c9bf00cee8b7004f007800801f780072
:1034700018c9bf00cfe8b7004f007800801f780060
:1034800019c9bf00d0e8b7004f007800007c2000c9
:10349000010020003e016000ae8160000200be001d
:1034a0004509dd00cb01de00830171004501dd002f
:1034b000f0032000010020003e026000ae826000a8
:1034c0000400be00c20add00ce00de008180720072
:1034d0004200dd0000007100e3007000c08f2f008b
:1034e000008060008042eb0084c0b300918c20001b
:1034f000821f2e00030c2000d6f407000080fa0083
:10350000000006000200fa00004f78001147980002
:103510000040eb00b3f407000004e0004b00320071
:10352000801f78001cc9bf00c9e8b7004f007800b1
:103530001e407800cae8b7001e409000cbe8b700f4
:10354000801f780015c9bf00cce8b7004f00780095
:10355000801f780016c9bf00cde8b7004f00780083
:10356000801f780017c9bf00cee8b7004f00780071
:10357000801f780018c9bf00cfe8b7004f0078005f
:10358000801f780019c9bf00d0e8b7004f0078004d
:10359000e2548000f354800000002c003100200031
:1035a00000006100818061004e0add00c202de0081
:1035b000850272004e02dd00e2548000f354800068
:1035c00000fc2300010020000000610081806100f8
:1035d0004a09dd00c600de00810071004a00dd00fe
:1035e0000002720081827200e2548000f354800075
:1035f000f0032000010020000000610081806100d4
:103600004a09dd00c600de00810071004a00dd00cd
:103610000001720081817200803f200001002000c3
:10362000000171008181710080df2f00f10f2f00f8
:1036300000016100818161008042eb0084c0b30021
:10364000918c2000900d2c0082f407000080fa007d
:10365000000006000400fa00008fbe000040eb00ee
:1036600060f407000004e0004c003200801f780086
:103670001cc9bf00c9e8b7004f007800801f780060
:1036800013c9bf00cae8b7004f007800801f780058
:1036900014c9bf00cbe8b7004f007800801f780046
:1036a00015c9bf00cce8b7004f007800801f780034
:1036b00016c9bf00cde8b7004f007800801f780022
:1036c00017c9bf00cee8b7004f007800801f780010
:1036d00018c9bf00cfe8b7004f007800801f7800fe
:1036e00019c9bf00d0e8b7004f00780000002c00d7
:1036f000310020003e016000ae8160000200be008b
:103700004e09dd00c201de00830171004e01dd00c3
:1037100000fc2300010020003e026000ae82600039
:103720000400be00ca0add00c600de00818072000f
:103730004a00dd000001710081817100f00320006a
:10374000010020003e026000ae8260000400be0066
:10375000ca0add00c600de00818072004a00dd007a
:103760000001710081817100803f20000100200074
:10377000000171008181710080df2f00f10f2f00a7
:1037800000016100818161008042eb0084c0b300d0
:10379000918c2000900d2c002ef407000080fa0080
:1037a000000006000200fa0010002000a60ae30054
:1037b0000e003a0000002c002008880010c0b30062
:1037c00025e9b7000040eb0026e9b7002192200070
:1037d000e0922000eef90700c05380006100600015
:1037e0000000e000010032002afc07000080fa001f
:1037f000000006001400fa000000eb0030079800fb
:103800000000eb00bbf307000000eb00200798006e
:103810000000eb0060079800c0f207000004e00021
:1038200002003a0011002000610798000001eb003f
:10383000720798003e0090000000e00002003c008b
:103840001000200070079800ee0090007e019000ac
:10385000028060000000e000edff3a00b3f20700d4
:10386000a7f20700000f78002e009000e1942000de
:10387000010040001e4878002e0090000000e80083
:10388000200798000001eb00020f9800d0002000f4
:103890009e0f10000200320011002000010f98005e
:1038a0000001eb00120f98002e009000fe0f500058
:1038b00002003c0010002000100f98008e089000bd
:1038c0001e099000028060000000e000d0ff3a0076
:1038d0002e009000905288000080fa000000060040
:1038e0000000fa0065f907000080fa0000000600f9
:1038f0000600fa008e80e80060c5b30080487800ba
:1039000000c5b300904098000040eb00a040980034
:10391000319520009140780052c9bf0094fd070006
:10392000004f78001e80fb0000558800100020002a
:10393000a00ae30008003a0010c6b30022e9b7006d
:10394000a0c6b30023e9b70010042000305388005c
:10395000b00620004053880020002000a00ae300a9
:1039600008003a0080c6b30022e9b700a0c6b30041
:1039700023e9b7008000200030538800b006200003
:103980004053880030002000a00ae30015003a00f0
:103990000000eb00505388000000eb0060538800eb
:1039a00080c6b30022e9b700a0c6b30023e9b70080
:1039b0008000200030538800b0062000405388006b
:1039c00090c4b3005449e30006003a00f2f4070043
:1039d000505380000000e00002003a000000eb00bd
:1039e0000055880040002000a00ae30008003a00cb
:1039f00020ccb30022e9b70030c3b30023e9b700fd
:103a0000000c200030538800100f20004053880025
:103a100050002000a00ae30001003a00fbfb070071
:103a200060002000a00ae30001003a0034fc070017
:103a30000e80e80050f30700c8f207000004e00021
:103a4000fdff3a00930007000080fa000000060026
:103a50001400fa0068004700f1fa2900000f9800ee
:103a6000110f98000e0890009e08900007000900b2
:103a700031587800870007002ec9bf000004e0001d
:103a800003003a00680047003bf30700440037009a
:103a90002fc9bf004047980030c9bf005047980069
:103aa000b05280000000e00006003a0040c0b300c1
:103ab000304798002ec9bf00634050002ee9b70080
:103ac0000200370010c0b30030479800000000002b
:103ad0002ec9bf000004e00031003200630147003e
:103ae00092407800014078000080fb00e3922000c3
:103af0000300400010407800204798008140e80013
:103b0000014978002e409000edfc070093f2070079
:103b10000004e000fdff3a000002200096f20700da
:103b20002ec9bf000040e9002ee9b7003e409000da
:103b30000080fb00e1922000010040009000fb00ab
:103b40004e4090000080fb00808f5000e0ff3a0064
:103b50003e4090000080fb00f392200003004000f4
:103b60009000fb005e4090000080fb00808f5000c2
:103b7000d7ff3a0047000700b05280000000e00085
:103b8000d3ff3a003e409000634040003047980029
:103b90002ec9bf00634050002ee9b700ccff3700ac
:103ba0000080fa00000006001400fa0068004700d8
:103bb000f1fa2900000f9800110f98000e089000ec
:103bc0009e08900007000900315878002ec9bf00f8
:103bd0000004e00004003a0068004700e6f2070035
:103be0002c0007001800370010c0b30030479800c1
:103bf0006005200060f207002ec9bf000004e0004d
:103c000010003200630147009240780001407800c4
:103c10000080fb00e3922000030040001040780089
:103c2000204798008140e800014978002e4090002c
:103c3000a3fc07002ec9bf000040e9002ee9b70031
:103c4000edff3700130007000080fa0000000600b7
:103c50000000fa000000000040f207000004e0004d
:103c6000fdff3a000002200043f207003bf207008c
:103c70000004e000fdff3a00000220003ef20700d1
:103c800036f207000004e000fdff3a000080fa0071
:103c9000000006000000fa00000000002ff20700fc
:103ca0000004e000fdff3a00d000200032f20700df
:103cb0002af207000004e000fdff3a00a000200007
:103cc0002df2070025f207000004e000fdff3a0096
:103cd0000080fa00000006000000fa00000000006a
:103ce0001ef207000004e000fdff3a00d0002000b3
:103cf00021f2070019f207000004e000fdff3a007e
:103d00000080fa00000006000400fa0000ff2f0007
:103d100030158800310020003000200013f4070027
:103d20000040eb0025f30700000f780000f02000b2
:103d30001e00600002102000110009000200d800df
:103d4000204798002e4090005dfc070000c0eb006b
:103d50001e406000204798001e40780058fc070075
:103d6000ccff07000080fa00000006000400fa0003
:103d700010ff2f0030158800310020003000200097
:103d8000faf307000040eb000cf30700000f780087
:103d900000f020001e006000021020001100090049
:103da0000200d800204798002e40900044fc0700f5
:103db00000c0eb001e406000204798001e407800c5
:103dc0003ffc0700b3ff07000080fa000000060078
:103dd0000c00fa006400470071fb290040079800be
:103de000510798004e009000de009000030009008b
:103df00031587800f0008000000f780000f02f00ac
:103e00001e0060004800de00204798002e40900011
:103e10002bfc070000c0eb001e406000204798000c
:103e20001e40780026fc07009aff07000080fa0079
:103e3000000006000600fa000000eb00000f78000a
:103e400060052000ccf10700b000200010079800aa
:103e50001e0090000000e000110032001e007800fb
:103e60002192200001004000104078004047980057
:103e70001e0fe8004e40900011fc0700b7f107004c
:103e80000004e000fdff3a0000022000baf1070044
:103e90001e0090000000e90010079800ecff3700ba
:103ea0007cff07000080fa00000006000400fa0012
:103eb0000000eb00000f780060052000aef1070065
:103ec00000c2b300204798002e4090000004e0009c
:103ed000110032001e007800e19220000100400035
:103ee00010407800304798001e0fe8003e409000d8
:103ef000f3fb070099f107000004e000fdff3a0022
:103f0000000220009cf107002e4090000040e900d4
:103f100020479800ecff37005eff07000080fa00a2
:043f20000000060097
:020000040000fa
:10000800de1f0000de1f0000de1f0000de1f0000f4
:10001800de1f0000de1f0000de1f0000de1f0000e4
:10002800de1f0000de1f0000de1f0000de1f0000d4
:10003800de1f0000de1f0000de1f00000c110000a4
:10004800de1f000004110000de1f0000de1f00009c
:10005800de1f0000de1f0000de1f0000de1f0000a4
:10006800de1f0000de1f0000de1f0000de1f000094
:10007800de1f0000de1f0000de1f0000de1f000084
:10008800de1f0000de1f0000de1f00006011000000
:10009800de1f0000de1f0000de1f0000de1f000064
:1000a800de1f0000de1f0000de1f0000de1f000054
:1000b800de1f0000de1f0000de1f0000de1f000044
:1000c800de1f0000de1f0000de1f0000de1f000034
:1000d800de1f0000de1f0000de1f0000de1f000024
:1000e800de1f0000de1f0000de1f0000de1f000014
:0800f800de1f0000de1f000006
:020000040000fa
:10010800de1f0000de1f0000de1f0000de1f0000f3
:10011800de1f0000de1f0000de1f0000de1f0000e3
:10012800de1f0000de1f0000de1f0000de1f0000d3
:10013800de1f0000de1f0000de1f00000c110000a3
:10014800de1f000004110000de1f0000de1f00009b
:10015800de1f0000de1f0000de1f0000de1f0000a3
:10016800de1f0000de1f0000de1f0000de1f000093
:10017800de1f0000de1f0000de1f0000de1f000083
:10018800de1f0000de1f0000de1f000060110000ff
:10019800de1f0000de1f0000de1f0000de1f000063
:1001a800de1f0000de1f0000de1f0000de1f000053
:1001b800de1f0000de1f0000de1f0000de1f000043
:1001c800de1f0000de1f0000de1f0000de1f000033
:1001d800de1f0000de1f0000de1f0000de1f000023
:1001e800de1f0000de1f0000de1f0000de1f000013
:0801f800de1f0000de1f000005
:020000040000fa
:103f240048520000442000002020000020760000b9
:103f3400312e0000300000005445000053540000ae
:103f4400312e000030000000312e0000303200001d
:103f54000045000052520000004e00004f200000b7
:103f6400444100005441000000530000503d000053
:043f74000000000049
:020000040000fa
:103f7800a80a00002400000000000000820a0000d7
:103f88001a000000000000009c0a00000c0000005d
:103f980002000000df0700000000000060000600cb
:103fa800000000000008000082020000000000007d
:043fb8000000000005
:020000040000fa
:043fbc000000fe0003
:00000001FF
